:1000000009C017C015C05CC013C012C011C010C019
:1000100063C00EC011241FBECFE9CDBF20E0A0E613
:10002000B0E001C01D92A936B207E1F766D0BDC0AD
:10003000E7CF1F920F920FB60F9211242F938F9339
:100040009F93EF93FF9380916800880F80936800DF
:1000500096B39170892B8093680012BE80916700DF
:10006000883220F58F5F80936700982F9770F1F4A6
:1000700090916800E82FE695E695E695F0E0EF5957
:10008000FF4F9083883291F480916200803571F443
:100090009D3061F49091630080916400890F805BD2
:1000A00020916500821302C090936100FF91EF914F
:1000B0009F918F912F910F900FBE0F901F901895C9
:1000C0001F920F920FB60F921124109267000F909B
:1000D0000FBE0F901F9018951F920F920FB60F92A0
:1000E00011248F93809160008F5F809360008F91C7
:1000F0000F900FBE0F901F90189590E198BB84E071
:1001000087BB83E083BF22E029BF91BD91E791BD0A
:1001100085BF80E48BBF85B7877E85BF789485B720
:10012000806285BF8FEF2FE13091600088959091BC
:1001300060003917D9F3811102C0C29802C08F3F05
:1001400009F08F5F90916100B49B02C08FEFECCFFC
:100150009430E0F39450903208F09FE1322F391B35
:10016000932F990F990F990F8917F0F2813031F47D
:100170008FE295E70197F1F700C00000C29A9FE572
:100180003AEE80E0915030408040E1F700C000003E
:10019000BB9A9FE732E382E0915030408040E1F724
:0E01A00000C00000BB9880E0BFCFF894FFCFF6
:00000001FF
